:100000000C9435010C9466010C9466010C94660105
:100010000C9466010C9466010C9466010C946601C4
:100020000C9466010C9466010C9466010C946601B4
:100030000C9466010C9466010C9466010C946601A4
:100040000C9466010C9466010C9466010C94660194
:100050000C9466010C9466010C9466010C941705CF
:100060000C9466010C948B050C9461050C9466014C
:100070000C9466010C9466010C9466010C94660164
:100080000C9466010C9466010C9466010C94660154
:100090000C9466010C9466010C9466010C94660144
:1000A0000C9466010C9466010C9466010C94660134
:1000B0000C9466010C9466010C9466010C94660124
:1000C0000C9466010C9466010C9466010C94660114
:1000D0000C9466010C9466010C9466010C94660104
:1000E0000C9466010C9483030C9468010C94C40274
:1000F0000C9497020C9477010C94C0020C94140297
:100100000C948D020C94D2020C94CD020C94BA0281
:100110000C94B2020C9493020C949F020C948B01E9
:100120000C94A8020C9499010C94C7010C94C1057D
:100130000C949B020C94CE020C94B6020C94C80250
:100140000C94AC020C94A2020000210024002700B1
:100150002A002D00300033000101000004010701D6
:100160000A0100002200250028002B002E0031008B
:10017000340002010000050108010B01000020000D
:100180002300260029002C002F003200000100006F
:10019000030106010901050505050705080808080A
:1001A000020202020A0A080804040404010101010F
:1001B000010101010303030303030303040707070A
:1001C0000C0C0C0C0C0C0C0C0202020206060606AF
:1001D000060606060B0B0B0B0B0B0B0B010210207C
:1001E000200808102040102040800201020108046D
:1001F0000201010204081020408080402010080401
:100200000201800402018040201008040201080459
:10021000020101020408102040800102040810209D
:10022000408000000A0B02090C0D0E0807030401B0
:1002300000000000000000000000000000000000BE
:10024000000000000000000000000000000012118B
:10025000100000000000000000000000000000008E
:100260000000000000000000C10511241FBECFEFF8
:10027000D1E2DEBFCDBF00E00CBF12E0A0E0B2E0F3
:10028000E0EEF1E100E00BBF02C007900D92AC334D
:10029000B107D9F723E0ACE3B2E001C01D92AE375D
:1002A000B207E1F711E0C5E3D1E000E006C0219715
:1002B0000109802FFE010E94E608C433D10780E0C7
:1002C0000807A9F70E9475060C94EE080C9400002C
:1002D000FC01538D448D252F30E0842F90E0821B4C
:1002E000930B541710F0CF96089501970895FC01D1
:1002F000918D828D981761F0A28DAE0FBF2FB11D29
:100300005D968C91928D9F5F9F73928F90E0089580
:100310008FEF9FEF0895FC01918D828D981731F03A
:10032000828DE80FF11D858D90E008958FEF9FEF8E
:100330000895FC01918D228D892F90E0805C9F4F64
:10034000821B91098F7399270895FC01A48DA80F32
:10035000B92FB11DA35ABF4F2C91848D90E0019607
:100360008F739927848FA689B7892C93A089B18927
:100370008C91837080648C93938D848D981306C0C8
:100380000288F389E02D80818F7D80830895EF922C
:10039000FF920F931F93CF93DF93EC0181E0888F3F
:1003A0009B8D8C8D98131AC0E889F989808185FF0F
:1003B00015C09FB7F894EE89FF896083E889F989B1
:1003C00080818370806480839FBF81E090E0DF91B3
:1003D000CF911F910F91FF90EF900895F62E0B8D06
:1003E00010E00F5F1F4F0F731127E02E8C8D8E11C1
:1003F0000CC00FB607FCFACFE889F989808185FF28
:10040000F5CFCE010E94A501F1CFEB8DEC0FFD2FB2
:10041000F11DE35AFF4FF0829FB7F8940B8FEA89E2
:10042000FB8980818062CFCFCF93DF93EC01888DF1
:100430008823B9F0AA89BB89E889F9898C9185FD5F
:1004400003C0808186FD0DC00FB607FCF7CF8C91ED
:1004500085FFF2CF808185FFEDCFCE010E94A501FF
:10046000E9CFDF91CF91089589E892E00E94990148
:1004700021E0892B09F420E0822F089580E090E0AC
:10048000892B29F00E94340281110E94000080E033
:1004900090E0892B49F080E090E0892B29F00E94C0
:1004A000000081110E94000080E090E0892B49F05B
:1004B00080E090E0892B29F00E94000081110E94C9
:1004C000000080E090E0892B49F080E090E0892BEB
:1004D00029F00E94000081110C94000008958150C1
:1004E000823108F05AC0E82FF0E08827E558FD4F28
:1004F0008F4F0C94E6089B029F028D029302970295
:10050000CD02A202A802AC02B202B602BA02C00236
:10051000C402CD02C802CE02D202809180008F7741
:10052000809380000895809180008F7DF9CF809125
:100530008000877FF5CF84B58F7784BD089584B51B
:100540008F7DFBCF8091B0008F778093B0000895AE
:100550008091B0008F7DF9CF809190008F7780934C
:1005600090000895809190008F7DF9CF8091900048
:10057000877FF5CF8091A0008F778093A0000895AA
:100580008091A0008F7DF9CF8091A000877FF5CF6B
:10059000809120018F778093200108958091200120
:1005A0008F7DF9CF80912001877FF5CFCF93DF93A7
:1005B000282F30E0F901EE5DFD4F8491F901E452FE
:1005C000FE4FD491F901EA56FE4FC491CC23A1F01D
:1005D00081110E946F02EC2FF0E0EE0FFF1FE45834
:1005E000FE4FA591B491EC91ED2381E090E009F4E8
:1005F00080E0DF91CF91089580E090E0FACF1F93E3
:10060000CF93DF93282F30E0F901EE5DFD4F849109
:10061000F901E452FE4FD491F901EA56FE4FC4911C
:10062000CC23A9F0162F81110E946F02EC2FF0E06D
:10063000EE0FFF1FEE59FE4FA591B4918FB7F894BE
:10064000EC91111108C0D095DE23DC938FBFDF91B0
:10065000CF911F910895DE2BF8CFCF93DF9390E0D9
:10066000FC01E452FE4F24918A569E4FFC01849176
:100670008823D1F090E0880F991FFC01E85BFE4FC2
:10068000A591B491FC01EE59FE4FC591D491611131
:100690000EC09FB7F8948C91E22FE0958E238C9337
:1006A0002881E223E8839FBFDF91CF9108958FB720
:1006B000F894EC91E22BEC938FBFF6CF3FB7F89410
:1006C0008091850290918602A0918702B091880264
:1006D00026B5A89B05C02F3F19F00196A11DB11D9D
:1006E0003FBFBA2FA92F982F8827BC01CD01620FD9
:1006F000711D811D911D42E0660F771F881F991F94
:100700004A95D1F70895AF92BF92CF92DF92EF92C0
:10071000FF920F931F93CF93DF936C017B018B01AB
:10072000040F151FEB015E01AE18BF08C017D107FB
:1007300059F06991D601ED91FC910190F081E02D85
:10074000C6011995892B79F7C501DF91CF911F91CA
:100750000F91FF90EF90DF90CF90BF90AF900895F2
:10076000CF92DF92EF92FF920F931F93CF93DF937D
:100770001F921F92CDB7DEB769834A83880F991FF6
:1007800000917C0310917D03000F111FE6E2F3E05E
:100790009F01265233402017310714F41192F8CFED
:1007A0002981FC01EA5DFC4F21838A81808360E01E
:1007B00080917A030E94FF021016110604F5015081
:1007C0001109F801EA5DFC4FE080D0907803C090F9
:1007D000760388E0F82E6E2D661F6627661F8C2D27
:1007E0000E94FF02EE0C61E08D2D0E94FF0260E08E
:1007F0008D2D0E94FF02FA94F110EDCFDDCF61E064
:1008000080917A030F900F90DF91CF911F910F91FC
:10081000FF90EF90DF90CF900C94FF02EF92FF9249
:100820000F931F93CF937C018C0183E0000F111F66
:100830008A95E1F70A5C1C4FC1E0F80111928F0123
:1008400040E06C2FC7010E94B003CF5FC930A9F709
:10085000CF911F910F91FF90EF900895BF92CF928B
:10086000DF92EF92FF920F931F93CF93DF93C6E235
:10087000D3E08EE3E82E82E0F82EBB24B39490E818
:10088000C92ED12C10E000E080917C0390917D0373
:10089000F701E00FF11F208121112AC01816190657
:1008A00084F4A601002E02C0559547950A94E2F7FC
:1008B000409588894823488B6B2D90E080E00E940A
:1008C000B0030F5F1F4F08301105F1F62196B39466
:1008D00088E0E80EF11C89E0B812D4CFDF91CF9107
:1008E0001F910F91FF90EF90DF90CF90BF900895F0
:1008F0001816190634F74889C601002E02C09595CE
:1009000087950A94E2F7482BD6CFFC01019000208E
:10091000E9F73197AF01481B590BBC0189E892E018
:100920000C9483038F929F92AF92BF92CF92DF92EB
:10093000EF92FF920F931F93CF93DF93CDB7DEB764
:10094000A1970FB6F894DEBF0FBECDBF6C01990F13
:10095000EE08FF08F7FE47C06DE289E892E00E94CA
:10096000C7018C0122273327A9012C193D094E0903
:100970005F0919A2CE0181967C019AE0892E912C03
:10098000A12CB12CCA01B901A50194010E94C4088F
:10099000605DF70162937F01211531054105510525
:1009A00089F790E080E0309719F0CF010E9485042C
:1009B000080F191F8EE192E00E948504800F911F9D
:1009C000A1960FB6F894DEBF0FBECDBFDF91CF91D9
:1009D0001F910F91FF90EF90DF90CF90BF90AF905D
:1009E0009F908F900895A701960119A28E010F5D27
:1009F0001F4F8AE0C82ED12CE12CF12CCA01B9017D
:100A0000A70196010E94C408605DF80162938F01FE
:100A1000211531054105510589F7309729F0CF019E
:100A20000E9485048C01C6CF10E000E0C3CF1F9266
:100A30000F920FB60F9211242F933F938F939F9392
:100A4000AF93BF938091810290918202A091830223
:100A5000B09184023091800223E0230F2D3758F5A6
:100A60000196A11DB11D2093800280938102909375
:100A70008202A0938302B0938402809185029091B8
:100A80008602A0918702B09188020196A11DB11D36
:100A90008093850290938602A0938702B093880288
:100AA000BF91AF919F918F913F912F910F900FBE6A
:100AB0000F901F90189526E8230F0296A11DB11DD7
:100AC000D2CF1F920F920FB60F9211240BB60F9236
:100AD0002F933F934F935F936F937F938F939F9346
:100AE000AF93BF93EF93FF9389E892E00E94A50133
:100AF000FF91EF91BF91AF919F918F917F916F91F6
:100B00005F914F913F912F910F900BBE0F900FBEB1
:100B10000F901F9018951F920F920FB60F921124ED
:100B20000BB60F922F938F939F93EF93FF93E091C8
:100B30009902F0919A028081E0919F02F091A002C7
:100B400082FD1DC090818091A2028F5F8F732091E2
:100B5000A302821741F0E091A202F0E0E757FD4FB7
:100B6000958F8093A202FF91EF919F918F912F918A
:100B70000F900BBE0F900FBE0F901F9018958081A5
:100B8000F2CFCF93DF9310928C0210928B0288EEFB
:100B900093E0A0E0B0E080938D0290938E02A0934A
:100BA0008F02B093900280E192E090938A0280934A
:100BB000890285EC90E0909396028093950284ECF4
:100BC00090E0909398028093970280EC90E090934D
:100BD0009A028093990281EC90E090939C0280931A
:100BE0009B0282EC90E090939E0280939D0286ECA3
:100BF00090E09093A00280939F021092A202109224
:100C0000A3021092A4021092A502CCE0D0E0D093EF
:100C10007703C09376038AE090E090937903809302
:100C200078038BE090E090937B0380937A0388E0D5
:100C300090E090937D0380937C0361E08CE00E94C0
:100C40002D0361E0809178030E942D0361E0809183
:100C50007A030E942D0361E080917A030E94FF02D3
:100C6000D0937703C0937603E6E3F3E0119283E039
:100C7000E637F807D9F7D0E0C0E080917C03909187
:100C80007D03C817D90774F540E06FE0CE010E94DC
:100C9000B00380917C0390917D03C817D9072CF491
:100CA00047E06BE0CE010E94B00340E069E0CE0176
:100CB0000E94B00380917C0390917D03C817D907EF
:100CC0001CF4CE010E940E0480917C0390917D0360
:100CD000C817D9072CF440E06CE0CE010E94B003A5
:100CE0002196CBCFDF91CF910895789484B582601F
:100CF00084BD84B5816084BD85B5826085BD85B5C0
:100D0000816085BD80916E00816080936E0010923D
:100D100081008091810082608093810080918100B8
:100D20008160809381008091800081608093800049
:100D30008091B10084608093B1008091B0008160A7
:100D40008093B000809191008260809391008091A7
:100D500091008160809391008091900081608093E8
:100D600090008091A10082608093A1008091A100F9
:100D700081608093A1008091A00081608093A00099
:100D80008091210182608093210180912101816005
:100D900080932101809120018160809320018091C6
:100DA0007A00846080937A0080917A0082608093D8
:100DB0007A0080917A00816080937A0080917A0035
:100DC000806880937A001092C10060E082E00E9407
:100DD0002D0360E083E00E942D0360E084E00E9428
:100DE0002D0360E085E00E942D0380917C039091AB
:100DF0007D031816190634F441E06CE090E080E0C1
:100E00000E94B00380917C0390917D03181619060F
:100E100034F44FE06AE090E080E00E94B0038091FB
:100E20007C0390917D031816190624F490E080E06D
:100E30000E940E04F4E0CF2ED12C772473940091FD
:100E4000080210910902E0900A02F0900B02E00EF5
:100E5000F11EF0920B02E0920A02A0900402B09000
:100E60000502C0910602D0910702CA0DDB1DD09386
:100E70000702C093060282E00E94D602892B59F035
:100E8000809102029091030297FD05C00197909313
:100E900003028093020283E00E94D602892B61F054
:100EA0008091020290910302883091052CF4019602
:100EB000909303028093020284E00E94D602892B61
:100EC00059F0809100029091010297FD05C00197B1
:100ED000909301028093000285E00E94D602892B44
:100EE00061F08091000290910102883091052CF40C
:100EF00001969093010280930002C730D10511F052
:100F0000209739F4B194A194B108B0920502A0924F
:100F10000402E114F10409F04AC0809102029091A8
:100F200003029C0121503109C217D3077CF00196BE
:100F30008C179D073CF0119501951109109309023A
:100F4000009308028C179D070CF095C080917E02DB
:100F500090917F02019690937F0280937E028EE1B2
:100F600092E00E94850481E292E00E9485048091D3
:100F70007E0290917F020E949204EEE3F2E01082E2
:100F80001182128213821482158216821782389679
:100F900082E0EE37F80799F70E942E04D0920B02F8
:100FA000C0920A02D0920702C09206021AC027E03D
:100FB000E216F10409F05FC08091000290910102F5
:100FC0009C0121503109C217D30794F001968C1768
:100FD0009D0774F011950195110910930902009372
:100FE000080280910A0290910B02079709F043C012
:100FF0008091000290910102209106023091070237
:10100000AC01415051092417350724F0019682178D
:1010100093078CF580913C0290913D02019690934C
:101020003D0280933C028EE192E00E9485048EE2B4
:1010300092E00E94850480913C0290913D020E94C2
:101040009204EEE3F2E01082118212821382148283
:1010500015821682178238968EE792E08E179F07C8
:1010600091F70E942E04D0920B02C0920A02D092F5
:101070000702C0920602EEE3F2E0108211821282B1
:101080001382148215821682178238968EE792E0B8
:101090008E179F0791F7E0910602F091070283E017
:1010A000EE0FFF1F8A95E1F7E25CFD4F80910A0287
:1010B00090910B02E80FF91F7082809102029091CB
:1010C0000302FC0123E0EE0FFF1F2A95E1F7EA5C23
:1010D000FD4F7082FC0133E0EE0FFF1F3A95E1F700
:1010E000E25CFD4F708243E0880F991F4A95E1F75B
:1010F000FC01EA5BFD4F7082809100029091010239
:10110000FC0153E0EE0FFF1F5A95E1F7EA5CFD4F3B
:101110007782FC0163E0EE0FFF1F6A95E1F7E25C66
:10112000FD4F778273E0880F991F7A95E1F7FC01F4
:10113000EA5BFD4F77820E942E040E945E034B0102
:101140005C01E4E12E2E312C412C512C0E945E03D7
:10115000681979098A099B09683E734081059105E0
:10116000A8F391E0291A31084108510828EE820EAF
:1011700023E0921EA11CB11C21143104410451042E
:1011800029F70E943E025BCEA1E21A2EAA1BBB1BCE
:10119000FD010DC0AA1FBB1FEE1FFF1FA217B30743
:1011A000E407F50720F0A21BB30BE40BF50B661F59
:1011B000771F881F991F1A9469F76095709580951D
:1011C00090959B01AC01BD01CF010895EE0FFF1F6B
:1011D000881F8BBF0790F691E02D1994F894FFCFEC
:1011E0000400040001000400FFFF040000000000F0
:1011F000C701830368011402990177018B010D0A6D
:10120000004C6566742053636F72653A2000526922
:0C1210006768742053636F72653A200019
:00000001FF
