:020000040000FA
:100000000C9462000C948A000C948A000C948A0070
:100010000C948A000C948A000C948A000C948A0038
:100020000C948A000C948A000C948A000C948A0028
:100030000C948A000C948A000C948A000C948A0018
:100040000C942A030C948A000C949A030C94740365
:100050000C948A000C948A000C948A000C948A00F8
:100060000C948A000C948A000000000024002700F1
:100070002A0000000000250028002B0000000000DE
:1000800023002600290004040404040404040202DA
:100090000202020203030303030301020408102007
:1000A0004080010204081020010204081020000012
:1000B0000008000201000003040700000000000027
:1000C0000000CC0311241FBECFEFD8E0DEBFCDBFB0
:1000D00011E0A0E0B1E0E4EDFCE002C005900D927B
:1000E000A632B107D9F722E0A6E2B1E001C01D9225
:1000F000A033B207E1F710E0C2E6D0E004C02197D8
:10010000FE010E946206C136D107C9F70E94800431
:100110000C9468060C940000FC01538D448D252F2F
:1001200030E0842F90E0821B930B541710F0CF9691
:10013000089501970895FC01918D828D981761F0C3
:10014000A28DAE0FBF2FB11D5D968C91928D9F5FDA
:100150009F73928F90E008958FEF9FEF0895FC01B9
:10016000918D828D981731F0828DE80FF11D858D6C
:1001700090E008958FEF9FEF0895FC01918D228DFF
:10018000892F90E0805C9F4F821B91098F73992784
:100190000895FC01A48DA80FB92FB11DA35ABF4F1C
:1001A0002C91848D90E001968F739927848FA68976
:1001B000B7892C93A089B1898C91837080648C93CA
:1001C000938D848D981306C00288F389E02D808179
:1001D0008F7D80830895EF92FF920F931F93CF93AB
:1001E000DF93EC0181E0888F9B8D8C8D98131AC072
:1001F000E889F989808185FF15C09FB7F894EE8959
:10020000FF896083E889F9898081837080648083B5
:100210009FBF81E090E0DF91CF911F910F91FF9000
:10022000EF900895F62E0B8D10E00F5F1F4F0F73A8
:100230001127E02E8C8D8E110CC00FB607FCFACF63
:10024000E889F989808185FFF5CFCE010E94C90038
:10025000F1CFEB8DEC0FFD2FF11DE35AFF4FF08234
:100260009FB7F8940B8FEA89FB8980818062CFCF9A
:10027000CF93DF93EC01888D8823B9F0AA89BB89DD
:10028000E889F9898C9185FD03C0808186FD0DC0C8
:100290000FB607FCF7CF8C9185FFF2CF808185FFE9
:1002A000EDCFCE010E94C900E9CFDF91CF91089533
:1002B0008BE391E00E94BD0021E0892B09F420E04E
:1002C000822F089580E090E0892B29F00E94580148
:1002D00081110C9400000895833081F028F481305E
:1002E00099F08230A9F008958730A9F08830C9F0DC
:1002F0008430B1F4809180008F7D03C080918000B4
:100300008F7780938000089584B58F7784BD08959A
:1003100084B58F7DFBCF8091B0008F778093B00044
:1003200008958091B0008F7DF9CFCF93DF93282F70
:1003300030E0F901E255FF4F8491F901E656FF4F95
:10034000D491F901EA57FF4FC491CC23A1F0811158
:100350000E946C01EC2FF0E0EE0FFF1FE458FF4FFE
:10036000A591B491EC91ED2381E090E009F480E057
:10037000DF91CF91089580E090E0FACF1F93CF9363
:10038000DF93282F30E0F901E255FF4F8491F90106
:10039000E656FF4FD491F901EA57FF4FC491CC23A1
:1003A000A9F0162F81110E946C01EC2FF0E0EE0FE6
:1003B000FF1FEE58FF4FA591B4918FB7F894EC91C1
:1003C000111108C0D095DE23DC938FBFDF91CF9150
:1003D0001F910895DE2BF8CFCF93DF9390E0FC01BF
:1003E000E656FF4F24918A579F4FFC018491882342
:1003F000D1F090E0880F991FFC01E859FF4FA591BB
:10040000B491FC01EE58FF4FC591D49161110EC01B
:100410009FB7F8948C91E22FE0958E238C932881DE
:10042000E223E8839FBFDF91CF9108958FB7F894BF
:10043000EC91E22BEC938FBFF6CF3FB7F89480910D
:100440002F0190913001A0913101B091320126B578
:10045000A89B05C02F3F19F00196A11DB11D3FBFFC
:10046000BA2FA92F982F8827BC01CD01620F711DCB
:10047000811D911D42E0660F771F881F991F4A95C5
:10048000D1F70895AF92BF92CF92DF92EF92FF9291
:100490000F931F93CF93DF936C017B018B01040FAC
:1004A000151FEB015E01AE18BF08C017D10759F048
:1004B0006991D601ED91FC910190F081E02DC6018A
:1004C0000995892B79F7C501DF91CF911F910F9184
:1004D000FF90EF90DF90CF90BF90AF9008959C0178
:1004E000E7E0F0E0E61BF70BED5CFE4F808191E06A
:1004F000811104C02530310509F490E090830895FE
:10050000CF92DF92EF92FF920F931F93CF93DF93DF
:1005100000D0CDB7DEB769834A83880F991F009159
:100520002E0210912F02000F111FE8EDF1E09F0144
:10053000285D31402017310714F41192F8CF29813A
:10054000FC01E852FE4F21838A81808360E0809124
:100550002C020E94BE011016110604F5015011096B
:10056000F801E852FE4FE080D0902A02C0902802A5
:1005700088E0F82E6E2D661F6627661F8C2D0E9460
:10058000BE01EE0C61E08D2D0E94BE0160E08D2D5C
:100590000E94BE01FA94F110EDCFDDCF61E08091B1
:1005A0002C020F900F90DF91CF911F910F91FF9030
:1005B000EF90DF90CF900C94BE01EF92FF920F93DB
:1005C0001F93CF937C018C0183E0000F111F8A954C
:1005D000E1F708511E4FC1E0F80111928F0140E090
:1005E0006C2FC7010E948002CF5FC930A9F7CF915D
:1005F0001F910F91FF90EF900895CF93DF93D0E07C
:10060000C0E080912E0290912F021816190674F402
:10061000FE01ED5CFE4F4081FE01E852FE4F408B33
:100620006C2F6F5F90E080E00E9480022196C830BE
:10063000D10539F7DF91CF910895FC010190002099
:10064000E9F73197AF01481B590BBC018BE391E0EF
:100650000C9442021F920F920FB60F9211242F9307
:100660003F938F939F93AF93BF9380912B01909172
:100670002C01A0912D01B0912E0130912A0123E08F
:10068000230F2D3758F50196A11DB11D20932A0186
:1006900080932B0190932C01A0932D01B0932E01F8
:1006A00080912F0190913001A0913101B0913201E0
:1006B0000196A11DB11D80932F0190933001A0934D
:1006C0003101B0933201BF91AF919F918F913F91D2
:1006D0002F910F900FBE0F901F90189526E8230FB3
:1006E0000296A11DB11DD2CF1F920F920FB60F928D
:1006F00011242F933F934F935F936F937F938F9327
:100700009F93AF93BF93EF93FF938BE391E00E948E
:10071000C900FF91EF91BF91AF919F918F917F9110
:100720006F915F914F913F912F910F900FBE0F905E
:100730001F9018951F920F920FB60F9211242F93AE
:100740008F939F93EF93FF93E0914B01F0914C01B6
:100750008081E0915101F091520182FD1BC0908196
:10076000809154018F5F8F7320915501821741F062
:10077000E0915401F0E0E55CFE4F958F80935401C9
:10078000FF91EF919F918F912F910F900FBE0F903E
:100790001F9018958081F4CFCF93DF9310923E0184
:1007A00010923D0188EE93E0A0E0B0E080933F011D
:1007B00090934001A0934101B09342018CE091E0FD
:1007C00090933C0180933B0185EC90E0909348012D
:1007D0008093470184EC90E090934A018093490113
:1007E00080EC90E090934C0180934B0181EC90E081
:1007F00090934E0180934D0182EC90E090935001D4
:1008000080934F0186EC90E09093520180935101C8
:1008100010925401109255011092560110925701F6
:10082000CCE0D0E0D0932902C09328028AE090E087
:1008300090932B0280932A028BE090E090932D02FC
:1008400080932C0288E090E090932F0280932E02F8
:1008500061E08CE00E94EC0161E080912A020E943C
:10086000EC0161E080912C020E94EC0161E080913A
:100870002C020E94BE01D0932902C0932802E8EE08
:10088000F1E0119282E0E832F807D9F7D0E0C0E059
:1008900080912E0290912F02C817D90774F540E07D
:1008A0006FE0CE010E94800280912E0290912F0273
:1008B000C817D9072CF447E06BE0CE010E948002F4
:1008C00040E069E0CE010E94800280912E0290916A
:1008D0002F02C817D9071CF4CE010E94DD028091B7
:1008E0002E0290912F02C817D9072CF440E06CE03B
:1008F000CE010E9480022196CBCFDF91CF91089547
:10090000CF93DF93CDB7DEB7A1970FB6F894DEBFD4
:100910000FBECDBF789484B5826084BD84B58160FC
:1009200084BD85B5826085BD85B5816085BD8091BA
:100930006E00816080936E00109281008091810032
:10094000826080938100809181008160809381002A
:10095000809180008160809380008091B1008460EC
:100960008093B1008091B00081608093B00080914D
:100970007A00846080937A0080917A00826080930C
:100980007A0080917A00816080937A0080917A0069
:10099000806880937A001092C10060E082E00E943B
:1009A000EC0160E083E00E94EC0180912E029091C6
:1009B0002F021816190634F441E06CE090E080E054
:1009C0000E94800280912E0290912F021816190623
:1009D00034F44FE06AE090E080E00E948002809171
:1009E0002E0290912F021816190624F490E080E050
:1009F0000E94DD0200E010E04091280150912901A1
:100A00008091060190910701840F951F9093070133
:100A1000809306012091020130910301609104014D
:100A200070910501620F731F7093050160930401BB
:100A3000009719F08730910539F451954195510986
:100A400050932901409328016730710509F080C057
:100A500031952195310930930301209302011092C1
:100A60003301109234011092350110923601109228
:100A70003701109238011092390110923A010E9408
:100A80006F02E0900001F09001016701F1E0CF1AE0
:100A9000D10870E060E0C6010E946F0270E060E083
:100AA000C7010E946F0270E060E0C70101960E94DA
:100AB0006F020E94FD0282E00E949501892B39F0AD
:100AC0001E141F0424F4D0920101C092000183E09F
:100AD0000E949501892B61F08091000190910101A4
:100AE000873091052CF401969093010180930001C9
:100AF0000E941D026B017C0188EC882E912CA12C98
:100B0000B12C0E941D026C197D098E099F09683E57
:100B1000734081059105A8F321E0821A9108A1088C
:100B2000B10888EEC80E83E0D81EE11CF11C8114C8
:100B30009104A104B10429F70115110509F45CCF52
:100B40000E945801882309F457CF0E94000054CF17
:100B50006115710509F083CF4091000150910101A9
:100B6000FA0131974F5F5F4F8E179F078CF148173F
:100B700059070CF474CF3195219531093093030155
:100B80002093020120912601309127012F5F3F4FD2
:100B9000309327012093260162CFA701960119A265
:100BA000CE0181967C019AE0892E912CA12CB12C4A
:100BB000CA01B901A50194010E944006605DF701D8
:100BC00062937F01211531054105510589F73AC02E
:100BD000481759070CF043CF8AE191E00E941D03AA
:100BE0008DE191E00E941D03C0902601D090270165
:100BF0000D2C000CEE08FF08F7FECFCF6DE28BE363
:100C000091E00E94EB0022273327A9012C193D090E
:100C10004E095F0919A2CE0181967C016AE0862EF9
:100C2000912CA12CB12CCA01B901A50194010E94FB
:100C30004006605DF70162937F0121153105410592
:100C4000510589F7E114F10419F0C7010E941D0351
:100C50008AE191E00E941D03109233011092340149
:100C600010923501109238011092390110923A0118
:100C70008FEF80933601809337010E94FD02FFCFF2
:100C8000A1E21A2EAA1BBB1BFD010DC0AA1FBB1F90
:100C9000EE1FFF1FA217B307E407F50720F0A21B02
:100CA000B30BE40BF50B661F771F881F991F1A946F
:100CB00069F760957095809590959B01AC01BD0199
:100CC000CF010895EE0FFF1F0590F491E02D0994D8
:100CD000F894FFCF0400FFFF0700030000000000AE
:100CE000EB0042028C003801BD009B00AF000D0AF2
:0A0CF0000053636F72653A200000A4
:107E0000112484B714BE81FFF0D085E080938100F7
:107E100082E08093C00088E18093C10086E0809377
:107E2000C20080E18093C4008EE0C9D0259A86E02C
:107E300020E33CEF91E0309385002093840096BBD3
:107E4000B09BFECF1D9AA8958150A9F7CC24DD24C4
:107E500088248394B5E0AB2EA1E19A2EF3E0BF2EE7
:107E6000A2D0813461F49FD0082FAFD0023811F036
:107E7000013811F484E001C083E08DD089C08234E0
:107E800011F484E103C0853419F485E0A6D080C0E4
:107E9000853579F488D0E82EFF2485D0082F10E0AE
:107EA000102F00270E291F29000F111F8ED06801E7
:107EB0006FC0863521F484E090D080E0DECF843638
:107EC00009F040C070D06FD0082F6DD080E0C81688
:107ED00080E7D80618F4F601B7BEE895C0E0D1E017
:107EE00062D089930C17E1F7F0E0CF16F0E7DF06D8
:107EF00018F0F601B7BEE89568D007B600FCFDCFD4
:107F0000A601A0E0B1E02C9130E011968C91119780
:107F100090E0982F8827822B932B1296FA010C0160
:107F200087BEE89511244E5F5F4FF1E0A038BF0790
:107F300051F7F601A7BEE89507B600FCFDCF97BE46
:107F4000E89526C08437B1F42ED02DD0F82E2BD052
:107F50003CD0F601EF2C8F010F5F1F4F84911BD097
:107F6000EA94F801C1F70894C11CD11CFA94CF0C13
:107F7000D11C0EC0853739F428D08EE10CD085E9AC
:107F80000AD08FE07ACF813511F488E018D01DD067
:107F900080E101D065CF982F8091C00085FFFCCF94
:107FA0009093C60008958091C00087FFFCCF809118
:107FB000C00084FD01C0A8958091C6000895E0E648
:107FC000F0E098E1908380830895EDDF803219F02E
:107FD00088E0F5DFFFCF84E1DECF1F93182FE3DFCA
:107FE0001150E9F7F2DF1F91089580E0E8DFEE27F6
:047FF000FF270994CA
:027FFE00040479
:00000001FF
